S01C000053696D706C652074726166666963206C696768742E7372656367
S11300000C942A000C9434000C9434000C943400A6
S11300100C9434000C9434000C9434000C9434008C
S11300200C9434000C9434000C9434000C9434007C
S11300300C9434000C9434000C9434000C9434006C
S11300400C9434000C9434000C9434000C9434005C
S11300500C94340011241FBECFE5D8E0DEBFCDBF21
S11300600E9436010C9482010C940000623439F130
S113007018F4613439F008956334F1F1643409F407
S113008058C0089541110EC04AB321E030E0B901CF
S113009002C0660F771F8A95E2F7CB01809584230F
S11300A08ABB08954AB321E030E0B90102C0660F6B
S11300B0771F8A95E2F7CB01842B8ABB08954111FF
S11300C00EC047B321E030E0B90102C0660F771FCC
S11300D08A95E2F7CB018095842387BB089547B3C3
S11300E021E030E0B90102C0660F771F8A95E2F77C
S11300F0CB01842B87BB089541110EC044B321E08A
S113010030E0B90102C0660F771F8A95E2F7CB0190
S11301108095842384BB089544B321E030E0B90181
S113012002C0660F771F8A95E2F7CB01842B84BB4C
S1130130089541110EC041B321E030E0B90102C07D
S1130140660F771F8A95E2F7CB018095842381BBE4
S1130150089541B321E030E0B90102C0660F771F72
S11301608A95E2F7CB01842B81BB0895623439F17F
S113017018F4613439F008956334F1F1643409F406
S113018058C0089541110EC04BB321E030E0B901CD
S113019002C0660F771F8A95E2F7CB01809584230E
S11301A08BBB08954BB321E030E0B90102C0660F68
S11301B0771F8A95E2F7CB01842B8BBB08954111FD
S11301C00EC048B321E030E0B90102C0660F771FCA
S11301D08A95E2F7CB018095842388BB089548B3C0
S11301E021E030E0B90102C0660F771F8A95E2F77B
S11301F0CB01842B88BB089541110EC045B321E087
S113020030E0B90102C0660F771F8A95E2F7CB018F
S11302108095842385BB089545B321E030E0B9017E
S113022002C0660F771F8A95E2F7CB01842B85BB4A
S1130230089541110EC042B321E030E0B90102C07B
S1130240660F771F8A95E2F7CB018095842382BBE2
S1130250089542B321E030E0B90102C0660F771F70
S11302608A95E2F7CB01842B82BB0895C0E0D0E0ED
S113027006C041E061E48C2F0E9436002196C33011
S1130280D105BCF3C0E0D0E006C041E063E48C2FAC
S11302900E9436002196C230D105BCF3C0E0D0E004
S11302A02DC0209759F440E063E481E00E94B60039
S11302B041E063E480E00E94B6000CC0209751F056
S11302C040E063E480E00E94B60041E063E481E042
S11302D00E94B60041E061E48C2F0E94B6002FE733
S11302E08AE196E0215080409040E1F700C0000090
S11302F040E061E48C2F0E94B6002196C330D10502
S10B030084F2CCCFF894FFCF86
S9030000FC
