:100000000C942A000C9434000C9434000C943400AA
:100010000C9434000C9434000C9434000C94340090
:100020000C9434000C9434000C9434000C94340080
:100030000C9434000C9434000C9434000C94340070
:100040000C9434000C9434000C9434000C94340060
:100050000C94340011241FBECFE5D8E0DEBFCDBF25
:100060000E9436010C944B010C940000623439F16B
:1000700018F4613439F008956334F1F1643409F40B
:1000800058C0089541110EC04AB321E030E0B901D3
:1000900002C0660F771F8A95E2F7CB018095842313
:1000A0008ABB08954AB321E030E0B90102C0660F6F
:1000B000771F8A95E2F7CB01842B8ABB0895411103
:1000C0000EC047B321E030E0B90102C0660F771FD0
:1000D0008A95E2F7CB018095842387BB089547B3C7
:1000E00021E030E0B90102C0660F771F8A95E2F780
:1000F000CB01842B87BB089541110EC044B321E08E
:1001000030E0B90102C0660F771F8A95E2F7CB0194
:100110008095842384BB089544B321E030E0B90185
:1001200002C0660F771F8A95E2F7CB01842B84BB50
:10013000089541110EC041B321E030E0B90102C081
:10014000660F771F8A95E2F7CB018095842381BBE8
:10015000089541B321E030E0B90102C0660F771F76
:100160008A95E2F7CB01842B81BB0895623439F183
:1001700018F4613439F008956334F1F1643409F40A
:1001800058C0089541110EC04BB321E030E0B901D1
:1001900002C0660F771F8A95E2F7CB018095842312
:1001A0008BBB08954BB321E030E0B90102C0660F6C
:1001B000771F8A95E2F7CB01842B8BBB0895411101
:1001C0000EC048B321E030E0B90102C0660F771FCE
:1001D0008A95E2F7CB018095842388BB089548B3C4
:1001E00021E030E0B90102C0660F771F8A95E2F77F
:1001F000CB01842B88BB089541110EC045B321E08B
:1002000030E0B90102C0660F771F8A95E2F7CB0193
:100210008095842385BB089545B321E030E0B90182
:1002200002C0660F771F8A95E2F7CB01842B85BB4E
:10023000089541110EC042B321E030E0B90102C07F
:10024000660F771F8A95E2F7CB018095842382BBE6
:10025000089542B321E030E0B90102C0660F771F74
:100260008A95E2F7CB01842B82BB089541E061E4DB
:1002700084E00E94360041E062E484E00E9436009F
:1002800041E061E484E00E94B60040E062E483E083
:0A0290000E94B600F5CFF894FFCFEE
:00000001FF
